{
  "contractName": "HTLC",
  "abi": [
    {
      "constant": true,
      "inputs": [],
      "name": "hash",
      "outputs": [
        {
          "name": "",
          "type": "bytes32"
        }
      ],
      "payable": false,
      "stateMutability": "view",
      "type": "function"
    },
    {
      "constant": true,
      "inputs": [],
      "name": "traderAddress",
      "outputs": [
        {
          "name": "",
          "type": "address"
        }
      ],
      "payable": false,
      "stateMutability": "view",
      "type": "function"
    },
    {
      "constant": true,
      "inputs": [],
      "name": "test",
      "outputs": [
        {
          "name": "",
          "type": "bytes32"
        }
      ],
      "payable": false,
      "stateMutability": "view",
      "type": "function"
    },
    {
      "inputs": [
        {
          "name": "_hash",
          "type": "bytes32"
        },
        {
          "name": "_traderAddress",
          "type": "address"
        }
      ],
      "payable": false,
      "stateMutability": "nonpayable",
      "type": "constructor"
    },
    {
      "constant": false,
      "inputs": [
        {
          "name": "_preImage",
          "type": "string"
        }
      ],
      "name": "unlock",
      "outputs": [],
      "payable": false,
      "stateMutability": "nonpayable",
      "type": "function"
    },
    {
      "constant": false,
      "inputs": [
        {
          "name": "_preImage",
          "type": "string"
        }
      ],
      "name": "encryptTest",
      "outputs": [
        {
          "name": "",
          "type": "bytes32"
        }
      ],
      "payable": false,
      "stateMutability": "nonpayable",
      "type": "function"
    }
  ],
  "bytecode": "0x608060405234801561001057600080fd5b5060405160408061056a8339810180604052604081101561003057600080fd5b8101908080519060200190929190805190602001909291905050508160008190555080600160006101000a81548173ffffffffffffffffffffffffffffffffffffffff021916908373ffffffffffffffffffffffffffffffffffffffff16021790555050506104c6806100a46000396000f3fe608060405234801561001057600080fd5b50600436106100575760003560e01c806309bd5a601461005c578063254114731461007a5780639cb673d9146100c4578063a96ce7aa14610193578063f8a8fd6d1461024e575b600080fd5b61006461026c565b6040518082815260200191505060405180910390f35b610082610272565b604051808273ffffffffffffffffffffffffffffffffffffffff1673ffffffffffffffffffffffffffffffffffffffff16815260200191505060405180910390f35b61017d600480360360208110156100da57600080fd5b81019080803590602001906401000000008111156100f757600080fd5b82018360208201111561010957600080fd5b8035906020019184600183028401116401000000008311171561012b57600080fd5b91908080601f016020809104026020016040519081016040528093929190818152602001838380828437600081840152601f19601f820116905080830192505050505050509192919290505050610298565b6040518082815260200191505060405180910390f35b61024c600480360360208110156101a957600080fd5b81019080803590602001906401000000008111156101c657600080fd5b8201836020820111156101d857600080fd5b803590602001918460018302840111640100000000831117156101fa57600080fd5b91908080601f016020809104026020016040519081016040528093929190818152602001838380828437600081840152601f19601f820116905080830192505050505050509192919290505050610331565b005b610256610494565b6040518082815260200191505060405180910390f35b60005481565b600160009054906101000a900473ffffffffffffffffffffffffffffffffffffffff1681565b6000816040516020018080602001828103825283818151815260200191508051906020019080838360005b838110156102de5780820151818401526020810190506102c3565b50505050905090810190601f16801561030b5780820380516001836020036101000a031916815260200191505b509250505060405160208183030381529060405280519060200120600281905550919050565b600054816040516020018080602001828103825283818151815260200191508051906020019080838360005b8381101561037857808201518184015260208101905061035d565b50505050905090810190601f1680156103a55780820380516001836020036101000a031916815260200191505b50925050506040516020818303038152906040528051906020012014610433576040517f08c379a00000000000000000000000000000000000000000000000000000000081526004018080602001828103825260128152602001807f696e636f726565637420707265496d616765000000000000000000000000000081525060200191505060405180910390fd5b3373ffffffffffffffffffffffffffffffffffffffff166108fc3073ffffffffffffffffffffffffffffffffffffffff16319081150290604051600060405180830381858888f19350505050158015610490573d6000803e3d6000fd5b5050565b6002548156fea165627a7a72305820be81b800eac8f912758662a2bd2776d0928671fb8b8829d0f7879d91164c55b10029",
  "source": "pragma solidity ^0.5.0;\n\ncontract HTLC {\n\n    bytes32 public hash;\n    address public traderAddress;\n    bytes32 public test;\n\n    constructor(bytes32 _hash, address _traderAddress) public {\n        hash = _hash;\n        traderAddress = _traderAddress;\n    }\n\n    function unlock(string memory _preImage) public {\n        require(keccak256(abi.encode(_preImage)) == hash, 'incoreect preImage');\n        msg.sender.transfer(address(this).balance);\n    }\n\n    function encryptTest(string memory _preImage) public returns(bytes32){\n         test = keccak256(abi.encode(_preImage));\n    }\n\n}",
  "sourcePath": "/Users/tomoaki/LX/lab/Solidity-HTLC/contracts/HTLC.sol",
  "compiler": {
    "name": "solc",
    "version": "0.5.8+commit.23d335f2.Emscripten.clang"
  },
  "schemaVersion": "3.0.11",
  "updatedAt": "2019-11-23T09:44:37.142Z",
  "devdoc": {
    "methods": {}
  },
  "userdoc": {
    "methods": {}
  }
}